:100000000C942A000C9447000C9447000C94470071
:100010000C9447000C9447000C9447000C94470044
:100020000C9447000C9447000C9447000C94470034
:100030000C9447000C9447000C9447000C94470024
:100040000C9447000C9447000C9447000C94470014
:100050000C94470011241FBECFE5D8E0DEBFCDBF12
:1000600010E0A0E6B0E0ECE9F1E002C005900D92EE
:10007000A236B107D9F720E0A2E6B0E001C01D9298
:10008000A336B207E1F70E94A5000C94CC000C94B3
:1000900000008FEF8BBB089584EA86BF06B607FE8B
:1000A000FDCF81B1887F8830E1F782E08BBB089576
:1000B00080E280B911B881E08BBB089583B984E8F0
:1000C00086BF06B607FEFDCF81B1887F8831E1F794
:1000D00083E08BBB089583B984E886BF06B607FE2C
:1000E000FDCF81B1887F8832E1F784E08BBB089532
:1000F00084E986BF06B604FEFDCF85E08BBB08957C
:1001000083B984E886BF06B607FEFDCF81B1887F3C
:10011000803411F08FEF8BBB089584E886BF06B65C
:1001200007FEFDCF81B1887F883511F08FEF8BBB43
:1001300083B1089590BD89B988E18AB98EE880BD00
:1001400008955D9BFECF8CB90895CF93DF931F92E6
:10015000CDB7DEB78FEF8ABB1BBA0E9458008FE580
:1001600090E00E949A000E944C00809160000E94E2
:1001700080000E948D0089830E94780089810E94FE
:10018000A1001BBA2FE788E391E021508040904006
:0C019000E1F700C00000E7CFF894FFCFBB
:02019C00EF0072
:00000001FF
