:100000000C942A000C9447000C9447000C94470071
:100010000C9447000C9447000C9447000C94470044
:100020000C9447000C9447000C9447000C94470034
:100030000C9447000C9447000C9447000C94470024
:100040000C9447000C9447000C9447000C94470014
:100050000C94470011241FBECFE5D8E0DEBFCDBF12
:1000600011E0A0E6B0E0E4EFF5E002C005900D92EB
:10007000A83EB107D9F711E0A8EEB1E001C01D928A
:10008000AE3EB107E1F70E9498020C94F8020C947E
:1000900000008FB9779BFECF8FB1089521E196952F
:1000A0008795779567952A95D1F72091EC012617CA
:1000B000D9F06093EC01E091E901F091EA018DE45F
:1000C0000995E091E901F091EA0180E00995E0915C
:1000D000E901F091EA018091EC010995E091E901D3
:1000E000F091EA0180E00994089590E0981739F0C2
:1000F00032B722B7231B2C33E0F39F5FF7CF08956D
:100100008091EB018DB98091E8018EB90895882323
:1001100019F0883040F101C08AE029E430E03093E2
:10012000EA012093E9011092E80191E09093ED013A
:10013000893099F018F4883091F008C08B3021F0A4
:100140008C3021F49093E80181E50AC082E5809328
:10015000EB0181E08093E801089582E501C083E529
:100160008093EB0108952BED30E03093EA0120936A
:10017000E901843081F030F4823079F0833079F411
:1001800080E30EC0863061F020F0873041F483E0D8
:1001900007C08CE005C088E103C080E601C080ECA8
:1001A0008093ED01089522B79091ED0182B7821BF3
:1001B0008917E0F308950F931F93CF93DF931F9256
:1001C000CDB7DEB708E010E087FF02C0C39A01C0D8
:1001D000C398880F110FB4991F5FC59A89830E9435
:1001E000D300C5980E94D300015089810111ECCF42
:1001F000812F0F90DF91CF911F910F91089587B3B9
:100200008C6287BBC298C5980E94D300C29A0E9494
:10021000D300C2988091E9019091EA0189549040FD
:1002200011F40E9480001092EC01089587B3837D41
:1002300087BB88B3837D88BB1DB80895CF93DF93B8
:10024000C1E2C15071F1E091E901F091EA018CEA5B
:100250000995E091E901F091EA0183E50995E091C2
:10026000E901F091EA0180E00995D82FE091E901D8
:10027000F091EA0180E00995D335A9F01DB80E94FC
:10028000D300C29A0E94D300C2980E94D3008091EA
:10029000E9019091EA018954904099F60E9480000A
:1002A000D0CF81E001C080E0DF91CF910895CF925F
:1002B000DF92EF92FF926B017C010E944E008C2D29
:1002C0008170880F880F880FE091E901F091EA01B1
:1002D00080620995D701C60139E0B695A795979533
:1002E00087953A95D1F7E091E901F091EA010995F6
:1002F000D701C601B695A79597958795E091E90135
:10030000F091EA010995E091E901F091EA0180E0BC
:10031000FF90EF90DF90CF900994CF92DF92EF9211
:10032000FF920F931F93CF93DF931F92CDB7DEB74A
:100330006B017C01142F29830E944E008C2D81704B
:10034000880F880F880FE091E901F091EA0180643D
:100350000995D701C60159E0B695A7959795879558
:100360005A95D1F7E091E901F091EA010995D70199
:10037000C601B695A79597958795E091E901F0910B
:10038000EA010995E091E901F091EA01812F0995CF
:100390002981222329F01F3729F48FE00E9475005C
:1003A00080E011C002B71EE1C701B6010E945701EB
:1003B0008F37B1F782B7801B8D3310F002B7115021
:1003C0001111F2CF81E00F90DF91CF911F910F912A
:1003D000FF90EF90DF90CF900895CF92DF92EF9251
:1003E000FF920F931F93CF93DF931F92CDB7DEB78A
:1003F0006B017C0149830E944E00E091E901F0917C
:10040000EA018CE40995D701C60179E0B695A79574
:10041000979587957A95D1F7E091E901F091EA01F6
:100420000995D701C601B695A79597958795E0914F
:10043000E901F091EA010995E091E901F091EA0101
:1004400080E0099549814F3F21F48FE00E947500BB
:1004500012C002B71EE1C701B6010E9457018F3FCB
:1004600051F482B7801B8D3310F002B71150111177
:10047000F2CF81E001C080E00F90DF91CF911F911A
:100480000F91FF90EF90DF90CF9008951F93CF933F
:10049000DF931F92CDB7DEB7182FE091E901F091FD
:1004A000EA0180EA99830995E091E901F091EA0176
:1004B0009981892F0995E091E901F091EA01812F55
:1004C0000995E091E901F091EA0180E00F90DF9158
:1004D000CF911F9109941F93CF93DF9300D0CDB795
:1004E000DEB7182FE091E901F091EA0180EC6A8310
:1004F00099830995E091E901F091EA019981892FA9
:100500000995E091E901F091EA01812F0995E091C7
:10051000E901F091EA016A81862F09958EE10E9436
:10052000750080E00F900F90DF91CF911F9108959B
:10053000CF92DF92EF92FF920F931F93CF93DF93AF
:10054000CDB7DEB7A0970FB6F894DEBF0FBECDBF14
:1005500080E00E9487000E941E0104E610E0E12C6A
:10056000F12CCE0101966C018091E3019091E401A0
:10057000E816F90664F5F8016081772767FD709544
:10058000762F662731978081992787FD9095682B74
:10059000792B882777FD8095982FF60129E030E0A8
:1005A000A80144505109DA01A20FB31FAC91A193E5
:1005B0002F5F3F4F29323105B1F720E04C2D0E94CB
:1005C0008D01FFEFEF1AFF0A055D1F4FCDCF80E0D1
:1005D00090E0A0960FB6F894DEBF0FBECDBFDF91BE
:1005E000CF911F910F91FF90EF90DF90CF900895E2
:0405F000F894FFCFAD
:1005F4003A313030303030303030433934324130B9
:100604003030433934333430303043393433343098
:1006140030304339343334303041413A3130303082
:10062400313030303043393433343030304339347E
:100634003334303030433934333430303043393468
:100644003334303039303A31303030323030303089
:100654004339343334303030433934333430303048
:100664004339343334303030433934333430303830
:10067400303A313030303330303030433934333441
:100684003030304339343334303030433934333418
:100694003030304339343334303037303A3130301D
:1006A40030343030303043393433343030304339FF
:1006B40034333430303043393433343030304339E8
:1006C400343334303036303A313030303530303005
:1006D40030433934333430303131323431464245A9
:1006E40043464535443845304445424643444246F2
:1006F40032353A31303030363030303045393433B9
:100704003630303043393434383030304339343093
:10071400303030383145303837424238443A31305D
:100724003030373030303138424138454235383353
:100734003630384542443231453038434235394405
:1007440042353839334245353A313030303830303B
:1007540030393834304438463331444243314342EB
:1007640043383842333832323738384242463543D8
:080774004633310900A1010028
:00000001FF
