:100000000C942A000C9434000C9434000C943400AA
:100010000C9434000C9434000C9434000C94340090
:100020000C9434000C9434000C9434000C94340080
:100030000C9434000C9434000C9434000C94340070
:100040000C9434000C9434000C9434000C94340060
:100050000C94340011241FBECFE5D8E0DEBFCDBF25
:100060000E9436000C9448000C94000081E087BB8D
:1000700018BA8EB583608EBD21E08CB59DB5893BE5
:100080009840D8F31DBC1CBC88B3822788BBF5CF31
:04009000F894FFCF12
:00000001FF
