:100000000C942A000C9447000C9447000C94470071
:100010000C9447000C9447000C9447000C94470044
:100020000C9447000C9447000C9447000C94470034
:100030000C9447000C9447000C9447000C94470024
:100040000C9447000C9447000C9447000C94470014
:100050000C94470011241FBECFE5D8E0DEBFCDBF12
:1000600010E0A0E6B0E0E4E2FEE002C005900D92F0
:10007000AA36B107D9F710E0AAE6B0E001C01D9298
:10008000AA37B107E1F70E9498020C9410070C946C
:1000900000008FB9779BFECF8FB1089521E196952F
:1000A0008795779567952A95D1F720916E00261749
:1000B000D9F060936E00E0916B00F0916C008DE4DC
:1000C0000995E0916B00F0916C0080E00995E0915A
:1000D0006B00F0916C0080916E000995E0916B00CF
:1000E000F0916C0080E00994089590E0981739F041
:1000F00032B722B7231B2C33E0F39F5FF7CF08956D
:1001000080916D008DB980916A008EB90895882321
:1001100019F0883040F101C08AE029E430E03093E2
:100120006C0020936B0010926A0091E090936F0036
:10013000893099F018F4883091F008C08B3021F0A4
:100140008C3021F490936A0081E50AC082E58093A7
:100150006D0081E080936A00089582E501C083E527
:1001600080936D0008952BED30E030936C00209368
:100170006B00843081F030F4823079F0833079F490
:1001800080E30EC0863061F020F0873041F483E0D8
:1001900007C08CE005C088E103C080E601C080ECA8
:1001A00080936F00089522B790916F0082B7821BF1
:1001B0008917E0F308950F931F93CF93DF931F9256
:1001C000CDB7DEB708E010E087FF02C0C39A01C0D8
:1001D000C398880F110FB4991F5FC59A89830E9435
:1001E000D300C5980E94D300015089810111ECCF42
:1001F000812F0F90DF91CF911F910F91089587B3B9
:100200008C6287BBC298C5980E94D300C29A0E9494
:10021000D300C29880916B0090916C0089549040FB
:1002200011F40E94800010926E00089587B3837DC0
:1002300087BB88B3837D88BB1DB80895CF93DF93B8
:10024000C1E2C15071F1E0916B00F0916C008CEA59
:100250000995E0916B00F0916C0083E50995E091C0
:100260006B00F0916C0080E00995D82FE0916B0055
:10027000F0916C0080E00995D335A9F01DB80E947B
:10028000D300C29A0E94D300C2980E94D3008091EA
:100290006B0090916C008954904099F60E94800008
:1002A000D0CF81E001C080E0DF91CF910895CF925F
:1002B000DF92EF92FF926B017C010E944E008C2D29
:1002C0008170880F880F880FE0916B00F0916C00AF
:1002D00080620995D701C60139E0B695A795979533
:1002E00087953A95D1F7E0916B00F0916C000995F4
:1002F000D701C601B695A79597958795E0916B00B4
:10030000F0916C000995E0916B00F0916C0080E039
:10031000FF90EF90DF90CF900994CF92DF92EF9211
:10032000FF920F931F93CF93DF931F92CDB7DEB74A
:100330006B017C01142F29830E944E008C2D81704B
:10034000880F880F880FE0916B00F0916C0080643B
:100350000995D701C60159E0B695A7959795879558
:100360005A95D1F7E0916B00F0916C000995D70197
:10037000C601B695A79597958795E0916B00F0918A
:100380006C000995E0916B00F0916C00812F09954C
:100390002981222329F01F3729F48FE00E9475005C
:1003A00080E011C002B71EE1C701B6010E945701EB
:1003B0008F37B1F782B7801B8D3310F002B7115021
:1003C0001111F2CF81E00F90DF91CF911F910F912A
:1003D000FF90EF90DF90CF900895CF92DF92EF9251
:1003E000FF920F931F93CF93DF931F92CDB7DEB78A
:1003F0006B017C0149830E944E00E0916B00F091FB
:100400006C008CE40995D701C60179E0B695A795F3
:10041000979587957A95D1F7E0916B00F0916C00F4
:100420000995D701C601B695A79597958795E0914F
:100430006B00F0916C000995E0916B00F0916C00FD
:1004400080E0099549814F3F21F48FE00E947500BB
:1004500012C002B71EE1C701B6010E9457018F3FCB
:1004600051F482B7801B8D3310F002B71150111177
:10047000F2CF81E001C080E00F90DF91CF911F911A
:100480000F91FF90EF90DF90CF9008951F93CF933F
:10049000DF931F92CDB7DEB7182FE0916B00F0917C
:1004A0006C0080EA99830995E0916B00F0916C00F3
:1004B0009981892F0995E0916B00F0916C00812F53
:1004C0000995E0916B00F0916C0080E00F90DF9156
:1004D000CF911F9109941F93CF93DF9300D0CDB795
:1004E000DEB7182FE0916B00F0916C0080EC6A830E
:1004F00099830995E0916B00F0916C009981892FA7
:100500000995E0916B00F0916C00812F0995E091C5
:100510006B00F0916C006A81862F09958EE10E9434
:10052000750080E00F900F90DF91CF911F9108959B
:100530000F931F93CF93DF9380E00E9487001F9259
:100540001F9286E690E09F938F930E941F030F9067
:100550000F900F900F90C0E0D0E080E090E00E94FC
:10056000E1028C010F3F8FEF180761F0802F992770
:1005700087FD90950E943303602FCE010E946B028D
:100580002196EBCF80E090E0DF91CF911F910F910A
:100590000C94CA02FC01238127FF10C0E0E7F0E0C1
:1005A000208131812817390711F411821082329687
:1005B00020E0E637F207A1F70E94A40580E090E072
:1005C0000895CF93DF93EC012B8120FF33C026FFEA
:1005D0000AC02F7B2B838E819F8101969F838E8300
:1005E0008A8190E029C022FF0FC0E881F9818081D3
:1005F000992787FD9095009719F420622B831AC0E4
:100600003196F983E8830EC0EA85FB85099597FF4B
:1006100009C02B81019611F480E101C080E2822B98
:100620008B8308C02E813F812F5F3F4F3F832E83F6
:10063000992702C08FEF9FEFDF91CF910895A0E03F
:10064000B0E0E5E2F3E00C94E906FE013596619135
:100650007191AF0180917200909173000E943A03F2
:10066000E2E00C94050760917200709173000E94A3
:1006700049060895ACE0B0E0E0E4F3E00C94D9065C
:100680007C016B018A01FC0117821682838181FF44
:10069000BDC1CE0101964C01F7019381F60193FD96
:1006A000859193FF81916F01882309F4ABC1853255
:1006B00039F493FD859193FF81916F01853229F47F
:1006C000B70190E00E944906E7CF512C312C20E081
:1006D0002032A0F48B3269F030F4803259F083324A
:1006E00069F420612CC08D3239F0803339F42160F7
:1006F00026C02260246023C0286021C027FD27C0B7
:1007000030ED380F3A3078F426FF06C0FAE05F9EED
:10071000300D1124532E13C08AE0389E300D112461
:10072000332E20620CC08E3221F426FD6BC1206472
:1007300006C08C3611F4206802C0883641F4F601F8
:1007400093FD859193FF81916F018111C1CF982F06
:100750009F7D9554933028F40C5F1F4FFFE3F9837E
:100760000DC0833631F0833771F0833509F05BC0FB
:1007700022C0F801808189830E5F1F4F4424439477
:10078000512C540115C03801F2E06F0E711CF801B4
:10079000A080B18026FF03C0652D70E002C06FEF1E
:1007A0007FEFC5012C870E943E062C0183012C851A
:1007B0002F77222E17C03801F2E06F0E711CF8015E
:1007C000A080B18026FF03C0652D70E002C06FEFEE
:1007D0007FEFC5012C870E9433062C012C852068F1
:1007E000222E830123FC1BC0832D90E0481659065E
:1007F000B0F4B70180E290E00E9449063A94F4CF49
:10080000F50127FC859127FE81915F01B70190E0FA
:100810000E94490631103A94F1E04F1A51084114F0
:10082000510471F7E5C0843611F0893639F5F801C5
:1008300027FF07C060817181828193810C5F1F4F08
:1008400008C060817181882777FD8095982F0E5FA1
:100850001F4F2F76B22E97FF09C090958095709507
:1008600061957F4F8F4F9F4F2068B22E2AE030E076
:10087000A4010E947B06A82EA81844C0853729F43D
:100880002F7EB22E2AE030E025C0F22FF97FBF2E56
:100890008F36C1F018F4883579F0B4C0803719F07C
:1008A000883721F0AFC02F2F2061B22EB4FE0DC0CB
:1008B0008B2D8460B82E09C024FF0AC09F2F96603C
:1008C000B92E06C028E030E005C020E130E002C0CB
:1008D00020E132E0F801B7FE07C0608171818281BA
:1008E00093810C5F1F4F06C06081718180E090E0B2
:1008F0000E5F1F4FA4010E947B06A82EA818FB2D97
:10090000FF77BF2EB6FE0BC02B2D2E7FA51450F403
:10091000B4FE0AC0B2FC08C02B2D2E7E05C07A2C76
:100920002B2D03C07A2C01C0752C24FF0DC0FE01B5
:10093000EA0DF11D8081803311F4297E09C022FF68
:1009400006C07394739404C0822F867809F0739460
:1009500023FD13C020FF06C05A2C731418F4530C47
:100960005718732C731468F4B70180E290E02C8759
:100970000E94490673942C85F5CF731410F4371830
:1009800001C0312C24FF12C0B70180E390E02C8716
:100990000E9449062C8522FF17C021FF03C088E56D
:1009A00090E002C088E790E0B7010CC0822F867803
:1009B00059F021FD02C080E201C08BE227FD8DE2EB
:1009C000B70190E00E944906A51438F4B70180E30E
:1009D00090E00E9449065A94F7CFAA94F401EA0DD8
:1009E000F11D8081B70190E00E944906A110F5CF6A
:1009F000332009F451CEB70180E290E00E9449060D
:100A00003A94F6CFF7018681978102C08FEF9FEF6E
:100A10002C96E2E10C94F506CF93DF93823091059A
:100A200010F482E090E0E0917800F091790020E00D
:100A300030E0A0E0B0E0309739F1408151814817B3
:100A40005907B8F04817590771F4828193811097BC
:100A500029F013969C938E9312972CC09093790053
:100A60008093780027C02115310531F042175307D4
:100A700018F0A901DB0101C0EF019A01BD01DF01FE
:100A80000280F381E02DD7CF21153105F9F0281B25
:100A9000390B2430310580F48A819B816115710501
:100AA00021F0FB019383828304C0909379008093AB
:100AB0007800FE01329644C0FE01E20FF31F8193DD
:100AC000919322503109398328833AC020917600CE
:100AD00030917700232B41F4209162003091630024
:100AE0003093770020937600209160003091610070
:100AF0002115310541F42DB73EB740916400509166
:100B00006500241B350BE0917600F0917700E21729
:100B1000F307A0F42E1B3F0B2817390778F0AC0120
:100B20004E5F5F4F2417350748F04E0F5F1F5093FD
:100B30007700409376008193919302C0E0E0F0E06B
:100B4000CF01DF91CF910895CF93DF93009709F400
:100B500087C0FC01329713821282C0917800D09135
:100B60007900209781F420813181280F391F8091ED
:100B70007600909177008217930779F5F0937700CC
:100B8000E09376006DC0DE0120E030E0AE17BF07D5
:100B900050F412964D915C9113979D0141155105AA
:100BA00009F1DA01F3CFB383A28340815181840F2D
:100BB000951F8A179B0771F48D919C911197840F53
:100BC000951F02969183808312968D919C91139725
:100BD000938382832115310529F4F0937900E09302
:100BE00078003EC0D9011396FC93EE9312974D9175
:100BF0005D91A40FB51FEA17FB0779F480819181FD
:100C0000840F951F0296D90111969C938E93828131
:100C1000938113969C938E931297E0E0F0E08A8183
:100C20009B81009719F0FE01EC01F9CFCE010296ED
:100C300028813981820F931F2091760030917700AF
:100C40002817390769F4309729F410927900109227
:100C5000780002C013821282D0937700C09376008E
:100C6000DF91CF910895FC01059061507040011013
:100C7000D8F7809590958E0F9F1F0895FC016150C5
:100C8000704001900110D8F7809590958E0F9F1FAE
:100C900008950F931F93CF93DF93182F092FEB0124
:100CA0008B8181FD03C08FEF9FEF20C082FF10C0BA
:100CB0004E815F812C813D81421753077CF4E8818E
:100CC000F9819F012F5F3F4F39832883108306C02E
:100CD000E885F985812F0995892B29F72E813F8198
:100CE0002F5F3F4F3F832E83812F902FDF91CF9136
:100CF0001F910F910895FA01AA27283051F1203150
:100D000081F1E8946F936E7F6E5F7F4F8F4F9F4F9F
:100D1000AF4FB1E03ED0B4E03CD0670F781F891FE1
:100D20009A1FA11D680F791F8A1F911DA11D6A0FAF
:100D3000711D811D911DA11D20D009F468943F9162
:100D40002AE0269F11243019305D3193DEF6CF0161
:100D50000895462F4770405D4193B3E00FD0C9F727
:100D6000F6CF462F4F70405D4A3318F0495D31FD94
:100D70004052419302D0A9F7EACFB4E0A6959795E7
:100D8000879577956795BA95C9F7009761057105BD
:100D900008959B01AC010A2E069457954795379507
:100DA0002795BA95C9F7620F731F841F951FA01D61
:100DB00008952F923F924F925F926F927F928F92FF
:100DC0009F92AF92BF92CF92DF92EF92FF920F93DA
:100DD0001F93CF93DF93CDB7DEB7CA1BDB0B0FB6E4
:100DE000F894DEBF0FBECDBF09942A8839884888A1
:100DF0005F846E847D848C849B84AA84B984C88437
:100E0000DF80EE80FD800C811B81AA81B981CE0F2D
:100E1000D11D0FB6F894DEBF0FBECDBFED01089512
:040E2000F894FFCF74
:0A0E240000007A00200025690A0092
:00000001FF
